:10033B00FA15FA67FB04FB90FC0CFC44FCACFD09C2
:10034B00FA15FA67FB04FB90FE22FE56FE85FE9A19
:10035B003F065B4F666D7D077F6F777C395E7971EA
:06036B007638373E400029
:1002E400814A00813C00A03C0000000000000000A6
:1002F40000000000000000000000000000000000FA
:1003040000000000000000000000000000000000E9
:1003140000000000000000000000000000000000D9
:100324000000000000823D00008141148842FEFD6F
:06033400FBF7EFDFBF7FC5
:10040F00D3EF9400EE940040147D727C00ED1D70CC
:0D041F00011CED4C70F7EF1F70E61E80E32E
:01042C0022AD
:1001FF0075900FAF90EF640F606B7F0A7E00120453
:10020F000FAF90EF640F605D75900FAF90EF24F517
:10021F00601124FE601414601824077019E47841EB
:10022F00F2801378417401F2800C78417402F280ED
:10023F000578417403F27590F0AF90EF2450601180
:10024F0024E0601424F06017247070197841E2F2F2
:10025F00227841E22404F2227841E22408F2227843
:06026F0041E2240CF22222
:10001E00783CE2FB7A00640160030200EE784AE26B
:05002E0060030200EE7A
:10003300784BF208F208F208F2783D08E225E02452
:1000430000F8E2FE08E24E6021783D08E2FF240159
:10005300F218E23400F2EF25E02401F8E224FFFE77
:1000630018E234FF784BF208CEF2783D08E225E03F
:100073002400F8E2FE08E24E7025783DF208F218FB
:1000830008E2FF2401F218E23400F2EF25E0240134
:10009300F8E224FFFE18E234FF784BF208CEF2D2E6
:1000A3008C784BE2FE08E2FF245BF58274033EF595
:1000B30083E493F580EF54072442F8E2F5A0784CEB
:1000C300E225E0FF18E233FE743B2FF58274033E12
:1000D300F583E493FF740193783FCFF208EFF27F47
:0800E300E87E0312040FC28C39
:1000EB0002001EEB4A70717841E2FFD394107480CA
:1000FB0094805064EF25E0243BF582E43403F583D0
:10010B00E493FF740193783FCFF208EFF27590F010
:10011B00D28CAF90EF64F060157841E2FF90035BF7
:10012B0093F580EF54072442F8E2F5A080E4784A77
:10013B00E2640170217841E22401FFE433FE783D53
:10014B0008E2FD2401F218E23400F2ED25E0240070
:10015B00F8EEF208EFF2C28CD295E4F58075A0FFB1
:08016B00F59078417414F222B2
:030003000203CB2A
:1003CB00C0E0C0D075D000C000C007783CE270041C
:1003DB007F0180027F00783CEFF2D007D000D0D0B5
:0303EB00D0E0322D
:03001B0002027569
:10027500C0E0C0F0C083C082C0D075D000C000C04F
:1002850001C002C003C004C005C006C007784AE229
:1002950070047F0180027F00784AEFF26401700DDF
:1002A500FE7F3CFD7BFE7A00790012039F784AE2CF
:1002B5007012783D08E225E02400F8E4F208F278AF
:1002C5003DF208F2D007D006D005D004D003D00205
:0F02D500D001D000D0D0D082D083D0F0D0E03292
:03000B000203EEFF
:1003EE00C0E0C0D075D000C000C006783FE2FE0865
:1003FE00E2F58AEEF58CB295D006D000D0D0D0E0E2
:01040E0032BB
:10037100758901D2AFD2A9C28CD288D28AD2AAD22F
:10038100A8C2A2C2A3C2A4D295E4F58075A0FF7F42
:0E039100037E0012040F1201FF12001E80F105
:0300000002017387
:0C017300787FE4F6D8FD7581070201BA20
:10039F00EF4E6012EF60010EEDBB010B89828A8375
:1003AF00F0A3DFFCDEFA2289F05007F709DFFCA982
:0C03BF00F022BBFEFCF309DFFCA9F022D9
:10017F00020371E493A3F8E493A34003F68001F222
:10018F0008DFF48029E493A3F85407240CC8C33381
:10019F00C4540F4420C8834004F456800146F6DF50
:1001AF00E4800B01020408102040809002E4E47EFA
:1001BF00019360BCA3FF543F30E509541FFEE49345
:1001CF00A360010ECF54C025E060A840B8E493A30C
:1001DF00FAE493A3F8E493A3C8C582C8CAC583CA37
:1001EF00F0A3C8C582C8CAC583CADFE9DEE780BEEF
:01033A0000C2
:00000001FF
